:10005B00E4FDFCC3ED9FEC9E5015E4FBFA0BBB00DB
:0F006B00010AEB64794A70F50DBD00010C80E4C9
:01007A002263
:10000300758901D28C758C3C758AFF308D2D05095D
:10001300C28D758C3C758AAFD3E5086480F8E50919
:100023006480985004D2A080E2D3E509648094945C
:100033005004C2A080D5E4F50980D020A1CD30A220
:10004300FD7F647E0012005B0508C3E508648094AD
:080053009440B875080180B368
:0300000002007B80
:0C007B00787FE4F6D8FD758109020003CF
:00000001FF
