:0C01E8000A0EC0F9A4B0999282F8809031
:1001CB00C292C2907F647E001201DD75A0FF7F6436
:0201DB007E00A4
:0B01DD00EF1FAC0670011E4C70F622F4
:04000300AB07AA0697
:100007007C037DE81201558F087C037DE8AF03AEC2
:10001700021201557E007F64CFCDCFCECCCE120128
:10002700558F0B7C037DE8AF03AE021201557E00AE
:100037007F64CFCDCFCECCCE1201557E007F0ACFC5
:10004700CDCFCECCCE1201558F0AAE02AF037C03C3
:100057007DE81201557E007F64CFCDCFCECCCE1286
:1000670001557E007F0ACFCDCFCECCCE1201558D64
:1000770009E4FBFA740E2508F8E6F5A0D290C293BE
:10008700C292C2911201CF740E250BF8E6F5A0D2E9
:1000970091C2931201CB740E250AF8E6F5A0D2920D
:1000A700C293C2911201CD740E2509F8E6F5A0D2CC
:1000B70093C2911201CB0BBB00010AEB64324A7069
:0100C700B385
:0100C8002215
:1001AA00E4F518F519AF19AE181200030519E51987
:1001BA0070020518C3940FE518648094A740E6807E
:0101CA00DF55
:030000000200C932
:0C00C900787FE4F6D8FD75811902011063
:10015500BC000BBE0029EF8DF084FFADF022E4CC8E
:10016500F875F008EF2FFFEE33FEEC33FCEE9DEC57
:10017500984005FCEE9DFE0FD5F0E9E4CEFD22ED9D
:10018500F8F5F0EE8420D21CFEADF075F008EF2FE7
:10019500FFED33FD4007985006D5F0F222C398FDD8
:0501A5000FD5F0EA2275
:1000D5000201AAE493A3F8E493A34003F68001F296
:1000E50008DFF48029E493A3F85407240CC8C3332C
:1000F500C4540F4420C8834004F456800146F6DFFB
:10010500E4800B01020408102040809001E8E47EA1
:10011500019360BCA3FF543F30E509541FFEE493EF
:10012500A360010ECF54C025E060A840B8E493A3B6
:10013500FAE493A3F8E493A3C8C582C8CAC583CAE1
:10014500F0A3C8C582C8CAC583CADFE9DEE780BE99
:0101F400000A
:00000001FF
