:10005100E4FDFCC3ED9FEC9E5015E4FBFA0BBB00E5
:0F006100010AEB647E4A70F50DBD00010C80E4CE
:01007000226D
:03000B0002000EE2
:10000E00C0E0C083C082C0D075D000C002C003C0A3
:07001E0004C005C006C00785
:10002500C290900000B2927F647E00120051A3E559
:07003500826415458370EEA3
:10003C00D007D006D005D004D003D002D0D0D082C7
:05004C00D083D0E0327A
:10007100D2AFD28875A881C292B2907F647E0012FD
:04008100005180F3B7
:0300000002008576
:0C008500787FE4F6D8FD75810702007159
:00000001FF
