:0C01BC000A08C0F9A4B0999282F8809063
:10018300E4FDFCC3ED9FEC9E5015E4FBFA0BBB00B2
:0F019300010AEB647E4A70F50DBD00010C80E49B
:0101A200223A
:0E01A3007F647E001201B175A0FF7F647E00B4
:0B01B100EF1FAC0670011E4C70F62220
:04011A00AB07AA067F
:10011E007C007D0A12008F8E148F15AE02AF037C09
:10012E00007D0A12008FAB05AA049000007408250A
:10013E0015F8E6F5A0D2B0C2B11201A374082BF8DF
:10014E00E6F5A0D2B1C2B01201A3A3E58264324596
:03015E008370DAD1
:01016100227B
:10016200E4F512F513AF13AE1212011A0513E513DB
:1001720070020512C39463E5126480948040E680A5
:01018200DF9D
:03000000020003F8
:0C000300787FE4F6D8FD75811502004AF4
:10008F00C2D5EC30E709B2D5E4C39DFDE49CFCEE8C
:10009F0030E715B2D5E4C39FFFE49EFE1200C5C33F
:1000AF00E49DFDE49CFC80031200C530D507C3E43A
:0600BF009FFFE49EFE22FB
:10000F00020162E493A3F8E493A34003F68001F2A4
:10001F0008DFF48029E493A3F85407240CC8C333F2
:10002F00C4540F4420C8834004F456800146F6DFC1
:10003F00E4800B01020408102040809001BCE47E94
:10004F00019360BCA3FF543F30E509541FFEE493B6
:10005F00A360010ECF54C025E060A840B8E493A37D
:10006F00FAE493A3F8E493A3C8C582C8CAC583CAA8
:10007F00F0A3C8C582C8CAC583CADFE9DEE780BE60
:0101C8000036
:1000C500BC000BBE0029EF8DF084FFADF022E4CC1F
:1000D500F875F008EF2FFFEE33FEEC33FCEE9DECE8
:1000E500984005FCEE9DFE0FD5F0E9E4CEFD22ED2E
:1000F500F8F5F0EE8420D21CFEADF075F008EF2F78
:10010500FFED33FD4007985006D5F0F222C398FD68
:050115000FD5F0EA2205
:00000001FF
