:1000F900000103070F1F3F7FFF0080C0E0F0F8FCFD
:10010900FEFF0080C0E0F0F8FCFEFF0102040810C9
:100119002040808182848890A0C0C1C2C4C8D0E038
:10012900E1E2E4E8F0F1F2F4F8F9FAFCFDFEFF008F
:1001390018244281001824428199A5C3DBE7FF00F6
:0F014900814224180081422418995A3CBD7EFF40
:0A041500252FF8E6F5A07F287E23CE
:10041F00E4F52CF52DD3E52D9FE52C9E500A052DE7
:09042F00E52D70F1052C80ED2291
:1001F2007D017C00E4F52EF52F8DA0ED25E0FFECCE
:1002020033FCEF4401FD7F107E2712041F052FE50A
:0E0212002F7002052EC39408E52E940040DBE9
:0102200022BB
:1001580078087C007D007BFF7A0079F97E007F09B2
:100168001200D3E4F52EF52F7408252FF8E6F412C3
:100178000419052FE52F7002052EC39409E52E9466
:030188000040E54F
:01018B002251
:1002210078087C007D007BFF7A0179027E007F09DE
:100231001200D3E4F52EF52F7408120415052FE5ED
:0E0241002F7002052EC39409E52E940040EAAA
:01024F00228C
:10018C0078087C007D007BFF7A01790B7E007F096B
:10019C001200D3E4F52EF52F7408252FF8E6F4128F
:1001AC000419052FE52F7002052EC39409E52E9432
:0301BC000040E51B
:0101BF00221D
:1003610075A00112041BE4F52EF52FE5A025E0127E
:100371000419052FE52F7002052EC39409E52E946B
:040381000040E8222E
:1003850075A08012041BE4F52EF52FE5A0C313120A
:100395000419052FE52F7002052EC39409E52E9447
:0403A5000040E8220A
:1003A90075A00312041BE4F52EF52FE5A025E01234
:1003B9000419052FE52F7002052EC39409E52E9423
:0403C9000040E822E6
:1003CD0075A0C012041BE4F52EF52FE5A0C3131282
:1003DD000419052FE52F7002052EC39409E52E94FF
:0403ED000040E822C2
:10033B00E4F52EF52F12041BE4F5A012041F75A093
:10034B00FF12041F052FE52F7002052EC39405E540
:06035B002E940040E02298
:1002500078087C007D007BFF7A0179147E007F2482
:100260001200D3E4F52EF52F7408120415052FE5BE
:0E0270002F7002052EC39424E52E940040EA60
:01027E00225D
:1003F10075A00712041BE4F52EF52FE5A025E012E8
:100401000419052FE52F7002052EC39409E52E94DA
:040411000040E8229D
:10043800E4F52EF52F75A05512041B75A0AA120419
:100448001F052FE52F7002052EC3940AE52E940090
:0304580040E3225C
:10027F0078087C007D007BFF7A0179387E007F054E
:10028F001200D3E4F52EF52F7408120415052FE58F
:0E029F002F7002052EC39405E52E940040EA50
:0102AD00222E
:1002AE0078087C007D007BFF7A01793D7E007F0B14
:1002BE001200D3E4F52EF52F7408120415052FE560
:0E02CE002F7002052EC3940BE52E940040EA1B
:0102DC0022FF
:1002DD0078087C007D007BFF7A0179487E007F05E0
:1002ED001200D3E4F52EF52F7408120415052FE531
:0E02FD002F7002052EC39405E52E940040EAF2
:01030B0022CF
:10030C0078087C007D007BFF7A01794D7E007F0BA5
:10031C001200D3E4F52EF52F7408120415052FE501
:0E032C002F7002052EC3940BE52E940040EABC
:01033A0022A0
:1001C0001201F212015812022112018C12033B1289
:1001D00003611203851203A91203CD120250120308
:1001E000F112043812027F1202AE1202DD12030C69
:0201F00080CEBF
:0300000002045B9C
:0C045B00787FE4F6D8FD75812F0201C007
:10000300E709F608DFFA8046E709F208DFFA803EDF
:1000130088828C83E709F0A3DFFA8032E309F608CC
:10002300DFFA8078E309F208DFFA807088828C8334
:10003300E309F0A3DFFA806489828A83E0A3F608E8
:10004300DFFA805889828A83E0A3F208DFFA804CC2
:1000530080D280FA80C680D4806980F28033801099
:1000630080A680EA809A80A880DA80E280CA803302
:1000730089828A83ECFAE493A3C8C582C8CCC5837A
:10008300CCF0A3C8C582C8CCC583CCDFE9DEE7804A
:100093000D89828A83E493A3F608DFF9ECFAA9F0C9
:1000A300EDFB2289828A83ECFAE0A3C8C582C8CC1F
:1000B300C583CCF0A3C8C582C8CCC583CCDFEADE38
:1000C300E880DB89828A83E493A3F208DFF980CC9A
:1000D30088F0EF60010E4E60C388F0ED2402B40493
:1000E3000050B9F582EB2402B4040050AF2323453A
:0600F3008223900053730C
:00000001FF
