:0C022C000A0BC0F9A4B0999282F88090EF
:10000300E4FDFCD3ED9FEC9E5015E4FBFA0BBB0023
:0F001300010AEB647E4A70F50DBD00010C80E41C
:0100220022BB
:1001E800AB07AA067C007D0A12015D8F08AE02AF3C
:1001F800037C007D0A12015D8D09740B2508F8E661
:10020800F580740B2509F8E6F5A07FC87E0002008A
:0102180003E2
:10021900759852758920758BFD758DFDD28E75A8DF
:030229009080FEC4
:03002300020026B2
:10002600C0E0C0F0C083C082C0D075D000C000C0A0
:0D00360001C002C003C004C005C006C00721
:100043001202398F15E51564737033751600751731
:1000530000D3E5179414E5169400501BAF17AE16A2
:100063001201E8E51764144516700280350517E59B
:100073001770DE051680DAE515B473CF8035AF153A
:10008300EF3395E0F5168F17D3E5179414E516941F
:10009300005020AF17AE161201E8E5176414451699
:1000A3007007FFFE1201E880970517E51770D90561
:0300B3001680D5DF
:1000B600D007D006D005D004D003D002D001D0009E
:0B00C600D0D0D082D083D0F0D0E03248
:030000000200D12A
:0C00D100787FE4F6D8FD75811702011855
:10015D00C2D5EC30E709B2D5E4C39DFDE49CFCEEBD
:10016D0030E715B2D5E4C39FFFE49EFE120193C3A1
:10017D00E49DFDE49CFC800312019330D507C3E49C
:06018D009FFFE49EFE222C
:0A0239003098FDAF99C2987E0022B4
:1000DD00020219E493A3F8E493A34003F68001F21E
:1000ED0008DFF48029E493A3F85407240CC8C33324
:1000FD00C4540F4420C8834004F456800146F6DFF3
:10010D00E4800B010204081020408090022CE47E54
:10011D00019360BCA3FF543F30E509541FFEE493E7
:10012D00A360010ECF54C025E060A840B8E493A3AE
:10013D00FAE493A3F8E493A3C8C582C8CAC583CAD9
:10014D00F0A3C8C582C8CAC583CADFE9DEE780BE91
:0102380000C5
:10019300BC000BBE0029EF8DF084FFADF022E4CC50
:1001A300F875F008EF2FFFEE33FEEC33FCEE9DEC19
:1001B300984005FCEE9DFE0FD5F0E9E4CEFD22ED5F
:1001C300F8F5F0EE8420D21CFEADF075F008EF2FA9
:1001D300FFED33FD4007985006D5F0F222C398FD9A
:0501E3000FD5F0EA2237
:00000001FF
