:1005B200E4FDFCC3ED9FEC9E5015E4FBFA0BBB007F
:0F05C200010AEB647E4A70F50DBD00010C80E468
:0105D1002207
:0C04E000C291D2927F327E007D007C0031
:0804EC008F1F8E1E8D1D8C1C5C
:1004F400E4F523F522F521F520AF1FAE1EAD1DACAA
:100504001CAB23AA22A921A820C31203B55017E5C6
:10051400232401F523E43522F522E43521F521E4F1
:060524003520F52080D314
:01052A0022AE
:10056B0075A0FFC290D291C2927F0A1204E6D2927A
:10057B0085A033533380AF33EF3395E0FEEF6480C8
:04058B004E60E422B8
:1005D2008F0A12056B850AA0C2901204E0C2927FB4
:0A05E200327E007D007C000204EC74
:1005EC008F1B12056B851BA0D2901204E0C2927F68
:0A05FC00327E007D007C000204EC5A
:10058F008B308A318932AB30AA31A9321202C0FFC7
:10059F0060101205EC74012532F532E43531F53176
:0305AF0080E422C3
:10061B007F031205D27F381205D27F061205D27FD7
:04062B000C0205D2E6
:10062F007F011205D27FE87E037D007C000204EC7F
:10063F007F801205D27FE87E037D007C000204ECF0
:10064F007FC01205D27FE87E037D007C000204ECA0
:1003C6008F0D8E0C8D0B8C0AE4FFFEFDFCAB0DAA87
:0E03D6000CA90BA80AC31203B5700302046B36
:1003E400E4F519F51AE4FFFEFDFCAB0DAA0CA90B0C
:1003F400A80AD31203B5403FE47B0AFAF9F8AF0D1B
:10040400AE0CAD0BAC0A120315EB2430FF740E25B1
:100414001AF8A607AF0DAE0CAD0BAC0AE47B0AFAD2
:10042400F9F81203158F0D8E0C8D0B8C0A051AE545
:100434001A70B2051980AE740E251AF8E4F6FB7A28
:1004440000790E1206068E198F1AC3E5196480947A
:10045400804019740E251AF8E6FF1205ECE51A150A
:070464001A70E7151980E38F
:06046B007F301205EC22B7
:080471008F278E268D258C24B7
:1004790012023F8F2B8E2A8D298C28E4120201A8A3
:1004890004A905AA06AB07AF27AE26AD25AC2412F1
:1004990000067B007A40791C78461200FB12023F65
:1004A9008F2F8E2E8D2D8C2CAF2BAE2AAD29AC28FB
:1004B9001203C6E4FFFEFDFCAB2FAA2EA92DA82C22
:1004C900C31203B560107F2E1205ECAF2FAE2EAD0F
:0604D9002DAC2C1203C63D
:0104DF0022FA
:10052B00758960E4F58DD2B5D28E7F1E7E001205E3
:10053B00B212061BAF8B7508008F09D3E5099463C4
:10054B00E50894004007E4F508F509F58BAE08AF14
:10055B0009E4FCFD1203C67F0A7E001205B280CAB5
:100003000202ABE86480F8E933E83360110460F07E
:10001300ED33EC337009E8FCE9FDEAFEEBFF220463
:1000230060DED3EB9FEA9EE99DE8C2E78CF0C2F75E
:1000330095F0400CE8CCF8E9CDF9EACEFAEBCFFB2A
:1000430012027685D0F05804700320D5B3E804700B
:10005300075002B2D50202B592D5EC0460F7E4CCA6
:10006300C0E0C398F8603B94186008400DD0E0FBF3
:1000730002028DE4FBFAC9FC8028E830E406E4C9F7
:10008300FBE4CAFCE830E305E4C9CACBFCE8540747
:100093006010F8C3E913F9EA13FAEB13FBEC13FC52
:1000A300D8F130F52FC3E49CFCEF9BFFEE9AFEEDF5
:1000B30099FDD0E0FBEF4E4D4C701222DB030202A0
:1000C300B2EC2CFCEF33FFEE33FEED33FDED30E706
:1000D300EB02028DEF2BFFEE3AFEED39FDD0E0FB94
:1000E30050130BBB00030202B5ED13FDEE13FEEF3D
:0800F30013FFEC13FC02028D67
:1000FB00EC4D6011E8497017ED33EC3304600DE4FF
:10010B00FCFFFEFD22E933E8330470F80202AB1268
:10011B00027658046009E4CC248150062850090269
:10012B0002B52840030202B2C0E0EB4A7044B9802A
:10013B0006D0E0FB0202A1EF4E701CBD8008EBFF66
:10014B00EAFEE9FD80EBE98DF0A4FEE5F00201E4A7
:10015B00E9CDF9EAFEEBFFEF89F0A4FCE5F0CE89DF
:10016B00F0A42EFFE435F0CD89F0A42DFEE435F09C
:10017B008067EF4E7005BD80D780C3EF8BF0A4ACCA
:10018B00F0EE8BF0A42CFCE435F0F8EF8AF0A42C05
:10019B00E5F038FCE433CB8DF0A42CFCE5F03BF818
:1001AB00EE8AF0A42CFCE5F038F8E433CF89F0A408
:1001BB002CFCE5F038CF3400CE89F0A42FFFE5F00E
:1001CB003EFEE433C98DF0A42EFEE5F039CD8AF066
:1001DB00A42FFFE5F03EFEE43DFD33D0E0FB5007DE
:1001EB000BBB000F0202B5EC2CFCEF33FFEE33FE22
:0601FB00ED33FD02028D50
:1002010075F020800E75F010800575F0087D007E78
:10021100007F003392D530D5031203A7EC33401091
:10022100EF33FFEE33FEED33FDEC33FCD5F0ED2281
:0E023100E5F0247EA2D513CC92E7CDCEFF22BD
:10023F00EDD2E7CD33EC3392D524814006E4FFFEB7
:10024F00FDFC22FCE4CFCECDCC24E0501174FF8016
:10025F00EDC3CC13CCCD13CDCE13CECF13CF0470B3
:07026F00F030D5DE0203A709
:10027600E9D2E7C933E833F892D5EDD2E7CD33ECCE
:0702860033FC5002B2D52247
:10028D00EC30E7100FBF000C0EBE00080DBD0004D2
:10029D000BEB6014A2D5EB13FCED92E7FD2274FF7E
:1002AD00FCFDFEFF22E480F8A2D574FF13FC7D80D7
:0302BD00E480EFEB
:0300000002065F96
:0C065F00787FE4F6D8FD75813302052B8E
:1002C000BB010689828A83E0225002E722BBFE023C
:0902D000E32289828A83E493226F
:1002D90075F008758200EF2FFFEE33FECD33CDCCDC
:1002E90033CCC58233C5829BED9AEC99E58298405F
:1002F9000CF582EE9BFEED9AFDEC99FC0FD5F0D63C
:10030900E4CEFBE4CDFAE4CCF9A88222B800C1B965
:100319000059BA002DEC8BF084CFCECDFCE5F0CBA3
:10032900F97818EF2FFFEE33FEED33FDEC33FCEBDC
:1003390033FB10D703994004EB99FB0FD8E5E4F997
:10034900FA227818EF2FFFEE33FEED33FDEC33FC84
:10035900C933C910D7059BE99A4007EC9BFCE99A78
:10036900F90FD8E0E4C9FAE4CCFB2275F010EF2FBD
:10037900FFEE33FEED33FDCC33CCC833C810D707BD
:100389009BEC9AE899400AED9BFDEC9AFCE899F8F8
:0E0399000FD5F0DAE4CDFBE4CCFAE4C8F9228B
:0E03A700C3E49FFFE49EFEE49DFDE49CFC2267
:1003B500EB9FF5F0EA9E42F0E99D42F0E89C45F09E
:0103C5002215
:10060600E4FFFE1202C0600C0FEF70010E09E970E4
:05061600F20A80EF2252
:00000001FF
