:0C01D1000A0EC0F9A4B0999282F8809048
:0E01B8007F647E001201C675A0FF7F647E008A
:0B01C600EF1FAC0670011E4C70F6220B
:10000300AB07AA067C037DE81201398F087C037DC8
:10001300E8AF03AE021201397E007F64CFCDCFCEAD
:10002300CCCE1201398F0B7C037DE8AF03AE0212F5
:1000330001397E007F64CFCDCFCECCCE1201397E85
:10004300007F0ACFCDCFCECCCE1201398F0AAE02BC
:10005300AF037C037DE81201397E007F64CFCDCFEF
:10006300CECCCE1201397E007F0ACFCDCFCECCCEFF
:100073001201398D09E4F50CF50D740E250AF8E625
:10008300F5A0D290C2911201B8740E2509F8E6F5D5
:10009300A0D291C2901201B8050DE50D7002050CB6
:0A00A300C39432E50C940040D12212
:10018E00758960E4F58DD2B5D28EAF8B8F82758373
:10019E0000D3E5829463E58394004005E4F582F58F
:0A01AE008BAF82AE8312000380E0E5
:030000000200AD4E
:0C00AD00787FE4F6D8FD7581190200F49C
:10013900BC000BBE0029EF8DF084FFADF022E4CCAA
:10014900F875F008EF2FFFEE33FEEC33FCEE9DEC73
:10015900984005FCEE9DFE0FD5F0E9E4CEFD22EDB9
:10016900F8F5F0EE8420D21CFEADF075F008EF2F03
:10017900FFED33FD4007985006D5F0F222C398FDF4
:050189000FD5F0EA2291
:1000B90002018EE493A3F8E493A34003F68001F2CE
:1000C90008DFF48029E493A3F85407240CC8C33348
:1000D900C4540F4420C8834004F456800146F6DF17
:1000E900E4800B01020408102040809001D1E47ED5
:1000F900019360BCA3FF543F30E509541FFEE4930C
:10010900A360010ECF54C025E060A840B8E493A3D2
:10011900FAE493A3F8E493A3C8C582C8CAC583CAFD
:10012900F0A3C8C582C8CAC583CADFE9DEE780BEB5
:0101DD000021
:00000001FF
