:0A00FB00EF1FAC0670011E4C6015EB
:10010500751C03751DE8E51D151DAC1C7002151C3D
:050115004C60E380F1E5
:01011A0022C2
:10011B00E4FDFCC3ED9FEC9E5015E4FBFA0BBB001A
:0F012B00010AEB647E4A70F50DBD00010C80E403
:01013A0022A2
:10018300758910758D8A758BCFD28E308FFDC28F96
:03019300C28E22F7
:0C000300C2B1D2B27F327E007D007C00D2
:08000F008F0C8E0B8D0A8C0989
:10001700E4F510F50FF50EF50DAF0CAE0BAD0AAC10
:1000270009AB10AA0FA90EA80DC31200A35017E51C
:10003700102401F510E4350FF50FE4350EF50EE445
:06004700350DF50D80D31C
:01004D002290
:1000B40075A0FFC2B0D2B1C2B27F0A120009D2B297
:1000C40085A018531880AF18EF3395E0FEEF6480D5
:0400D4004E60E42274
:10013B008F081200B48508A0C2B0120003C2B27FB0
:0A014B00327E007D007C0002000FF0
:100155008F081200B48508A0D2B0120003C2B27F86
:0A016500327E007D007C0002000FD6
:1000D8008B198A1A891BAB19AA1AA91B12008AFF45
:1000E80060101201557401251BF51BE4351AF51A29
:0300F80080E4227F
:10016F007F0312013B7F3812013B7F0612013B7F59
:04017F000C02013B32
:10004E0075A0FFC2B57F0A7E0012011BD2B5120148
:10005E001B85901712018312016F7F0112013B7FE6
:10006E000A1200097F8012013BAF171201557F0A59
:0C007E001200097FD07E0712011B80C712
:0300000002019664
:0C019600787FE4F6D8FD75811D02004E54
:10008A00BB010689828A83E0225002E722BBFE0274
:09009A00E32289828A83E49322A7
:1000A300EB9FF5F0EA9E42F0E99D42F0E89C45F0B3
:0100B300222A
:00000001FF
