:10021D00E4FDFCC3ED9FEC9E5015E4FBFA0BBB0017
:0F022D00010AEB64794A70F50DBD00010C80E405
:01023C00229F
:08025E008F993099FDC299222D
:1000FE008F1C8E1B8D1A8C19E4FFFEFDFCAB1CAA07
:0E010E001BA91AA819C31200D470030201A382
:10011C00E4F528F529E4FFFEFDFCAB1CAA1BA91A8B
:10012C00A819D31200D4403FE47B0AFAF9F8AF1CAB
:10013C00AE1BAD1AAC19120042EB2430FF741D2516
:10014C0029F8A607AF1CAE1BAD1AAC19E47B0AFA52
:10015C00F9F81200428F1C8E1B8D1A8C190529E59B
:10016C002970B2052880AE741D2529F8E4F6FB7AB7
:10017C0000791D12023D8E288F29C3E528648094D6
:10018C00804019741D2529F8E6FF12025EE5291539
:07019C002970E7152880E33C
:0601A3007F3012025E2213
:030003000201A94E
:1001A900C0E0C0F0C083C082C0D075D000C000C01C
:1001B90001C002C003C004C005C006C007052BE585
:1001C9002B7002052A7F0812025E12025EAE2AAF68
:1001D9002BE4FCFD1200FED007D006D005D004D0D8
:1001E90003D002D001D000D0D0D082D083D0F0D0BB
:0201F900E032F2
:1001FB00D28875A881758922759850758BFD758D80
:10020B00FDD28ED28C7F007E007D007C001200FE22
:02021B0080FE63
:03000000020252A7
:0C025200787FE4F6D8FD75812B0201FBDB
:1000060075F008758200EF2FFFEE33FECD33CDCCB1
:1000160033CCC58233C5829BED9AEC99E582984034
:100026000CF582EE9BFEED9AFDEC99FC0FD5F0D611
:10003600E4CEFBE4CDFAE4CCF9A88222B800C1B93B
:100046000059BA002DEC8BF084CFCECDFCE5F0CB79
:10005600F97818EF2FFFEE33FEED33FDEC33FCEBB2
:1000660033FB10D703994004EB99FB0FD8E5E4F96D
:10007600FA227818EF2FFFEE33FEED33FDEC33FC5A
:10008600C933C910D7059BE99A4007EC9BFCE99A4E
:10009600F90FD8E0E4C9FAE4CCFB2275F010EF2F93
:1000A600FFEE33FEED33FDCC33CCC833C810D70793
:1000B6009BEC9AE899400AED9BFDEC9AFCE899F8CE
:0E00C6000FD5F0DAE4CDFBE4CCFAE4C8F92261
:1000D400EB9FF5F0EA9E42F0E99D42F0E89C45F082
:0100E40022F9
:10023D00E4FFFE1200E5600C0FEF70010E09E9708E
:05024D00F20A80EF221F
:1000E500BB010689828A83E0225002E722BBFE0219
:0900F500E32289828A83E493224C
:00000001FF
