:0C023E000A18C0F9A4B0999282F88090D0
:1001FF00C292C2907F647E0012021175A0FF7F64CD
:02020F007E006F
:0B021100EF1FAC0670011E4C70F622BF
:10000E00AE12AF137C037DE81201458E0A8F0BAE44
:10001E0012AF137C037DE8120145AA04AB057D6483
:10002E007C00AF03AE021201458E108F117D647CF1
:10003E0000AF03AE02120145AA04AB057D0A7C0097
:10004E00AF03AE021201458E0E8F0F7D0A7C00AFFC
:10005E0003AE021201458C0C8D0DE4FBFA741825CB
:10006E000BF8E6F5A0D290C293C292C2911202038F
:10007E0074182511F8E6F5A0D291C2931201FF74FF
:10008E0018250FF8E6F5A0D292C293C29112020182
:10009E007418250DF8E6F5A0D293C2911201FF0B4C
:0A00AE00BB00010AEB64644A70B362
:0100B8002225
:03000300020231C5
:0D023100C0E00509E50970020508D0E032C3
:03000B0002021CD2
:10021C00C0E0C28D758C3C758AAF0515E515700272
:05022C000514D0E032D2
:1001D00075A881758901D28CD28DD2AFD2A9D2886F
:1001E000C3E5159414E5149400400FE4F514F515D7
:0F01F000850812850913F508F50912000E80E144
:030000000200B942
:0C00B900787FE4F6D8FD7581210201007B
:10014500C2D5EC30E709B2D5E4C39DFDE49CFCEED5
:1001550030E715B2D5E4C39FFFE49EFE12017BC3D1
:10016500E49DFDE49CFC800312017B30D507C3E4CC
:060175009FFFE49EFE2244
:1000C5000201D0E493A3F8E493A34003F68001F280
:1000D50008DFF48029E493A3F85407240CC8C3333C
:1000E500C4540F4420C8834004F456800146F6DF0B
:1000F500E4800B010204081020408090023EE47E5B
:10010500019360BCA3FF543F30E509541FFEE493FF
:10011500A360010ECF54C025E060A840B8E493A3C6
:10012500FAE493A3F8E493A3C8C582C8CAC583CAF1
:10013500F0A3C8C582C8CAC583CADFE9DEE780BEA9
:01024A0000B3
:10017B00BC000BBE0029EF8DF084FFADF022E4CC68
:10018B00F875F008EF2FFFEE33FEEC33FCEE9DEC31
:10019B00984005FCEE9DFE0FD5F0E9E4CEFD22ED77
:1001AB00F8F5F0EE8420D21CFEADF075F008EF2FC1
:1001BB00FFED33FD4007985006D5F0F222C398FDB2
:0501CB000FD5F0EA224F
:00000001FF
