;PL51L Ver 3.01 29/12/12-18:33:45
:200000000216E978087C007D007BFF7A0479D47E007F25120F38782D7C007D007BFF7A0410
:2000200079F97E007F25120F38E4F580F5B0F5A0F590F570F57174082571F8E6F5A0F590E6
:20004000121EF90571E57170020570C39409E570940040E2E4F5A0F590F570F571AF7174FC
:200060002D2FF8E6F5807408121EF40571E57170020570C39409E570940040E1E4F570F5D6
:200080007174082571F8E6F5A0F590121EF90571E57170020570C39409E570940040E2E4BA
:2000A000F5A0F590F570757109AF71742D2FF8E6F5807408121EF40571E57170020570C379
:2000C0009410E570940040E1E4F570F57174082571F8E6F5A0F590121EF90571E571700252
:2000E0000570C39409E570940040E2E4F5A0F590F570757110AF71742D2FF8E6F580740808
:20010000121EF40571E57170020570C39416E570940040E1E4F570F57174082571F8E6F5FD
:20012000A0F590121EF90571E57170020570C39409E570940040E2E4F5A0F590F57075710A
:2001400016AF71742D2FF8E6F5807408121EF40571E57170020570C3941BE570940040E177
:20016000E4F570F57174082571F8E6F5A0F590121EF90571E57170020570C39409E57094A1
:200180000040E2E4F5A0F590F57075711BAF71742D2FF8E6F5807408121EF40571E57170BA
:2001A000020570C3941FE570940040E1E4F570F57174082571F8E6F5A0F590121EF90571F0
:2001C000E57170020570C39409E570940040E2E4F5A0F590F57075711FAF71742D2FF8E641
:2001E000F5807408121EF40571E57170020570C39422E570940040E1E4F570F57174082564
:2002000071F8E6F5A0F590121EF90571E57170020570C39409E570940040E2E4F5A0F59030
:20022000F570757122AF71742D2FF8E6F5807408121EF40571E57170020570C39424E570EB
:20024000940040E1E4F570F57174082571F8E6F5A0F590121EF90571E57170020570C394FD
:2002600009E570940040E2E4F5A0F590F570757124AF71742D2FF8E6F5807408121EF40515
:2002800071E57170020570C39425E570940040E175B0FF7580FFE4F570F57174082571F859
:2002A000E6F5A0F590121EF90571E57170020570C39425E570940040E222FEFDFBF7EFDFFE
:2002C000BF7F7FBFDFEFF7FBFDFE0103070F1F3F7FFFF0E1C3870F0F4F6371781F4F6F73CD
:2002E000797C3F5F6F777B7D7EF0E1C3870FF0E2C68E1EF8F2E6CE9E3E3F5F6F777B7D7E2D
:20030000F8F1E3C78F1F3F7FFF1F8FC7E3F1F8FCFEFF7FAF57AB55AA55AA55AA55AAAA557A
:20032000AA55AA557FAF57AB55AA55AA55AA55AAAA55AA55AA557FAF57AB55AA55AA55AA69
:2003400055AAAA55AA55AA55FEFDFBF7EFDFBF7F7E7D7B776F5F3F3E3D3B372F1F1E1D1B1D
:20036000170F0E0D0B070605030201007FBFDFEFF7FBFDFE7EBEDEEEF6FAFC7CBCDCECF438
:20038000F878B8D8E8F070B0D0E060A0C0408000FEFDFBF7EFDFBF7F7E7D7B776F5F3F3E04
:2003A0003D3B372F1F1E1D1B170F0E0D0B070605030201007FBFDFEFF7FBFDFE7EBEDEEE85
:2003C000F6FAFC7CBCDCECF4F878B8D8E8F070B0D0E060A0C0408000000102040810204096
:2003E000808182848890A0C0C1C2C4C8D0E0E1E2E4E8F0F1F2F4F8F9FAFCFDFEFF008040C8
:2004000020100804020181412111090503834323130B07874727170F8F4F2F1F9F5F3FBF47
:200420007FFF0001020408102040808182848890A0C0C1C2C4C8D0E0E1E2E4E8F0F1F2F42B
:20044000F8F9FAFCFDFEFF00804020100804020181412111090503834323130B07874727B4
:20046000170F8F4F2F1F9F5F3FBF7FFFFEFCF8F0E0C080007F3F1F0F070301000103070F9D
:200480001F3F7FFF80C0E0F0F8FCFEFFFEFDFBF7EFDFBF7F7E7D7B776F5F3F3E3D3B372F70
:2004A0001F1E1D1B170F0E0D0B070605030201007FBFDFEFF7FBFDFE7EBEDEEEF6FAFC7CFA
:2004C000BCDCECF4F878B8D8E8F070B0D0E060A0C0408000000102040810204080818284F6
:2004E0008890A0C0C1C2C4C8D0E0E1E2E4E8F0F1F2F4F8F9FAFCFDFEFF0080402010080492
:20050000020181412111090503834323130B07874727170F8F4F2F1F9F5F3FBF7FFF3FCFF6
:20052000F3FC3FCFF3FCFCF3CF3FFCF3CF3F3FCFF3FCFCF3CF3F78087C007D007BFF7A046A
:20054000798C7E007F24120F38782C7C007D007BFF7A0479B07E007F24120F3875B0FF754B
:20056000A0FF7590FF7580FFE4F570F571121EE90571E57170020570C39408E570940040E1
:20058000EC7580FF75B0FFE4F570F571742C2571F8E6F5A0F590121EF90571E5717002050E
:2005A00070C39408E570940040E2E4F570F571121EE90571E57170020570C39408E570949E
:2005C0000040EC7580FF75B0FF757000757108742C2571F8E6F5A0F590121EF90571E571E1
:2005E00070020570C3940FE570940040E2E4F570F571121EE90571E57170020570C39408C9
:20060000E570940040EC7580FF75B0FF75700075710F742C2571F8E6F5A0F590121EF90577
:2006200071E57170020570C39415E570940040E2E4F570F571121EE90571E571700205701A
:20064000C39408E570940040EC7580FF75B0FF757000757115742C2571F8E6F5A0F59012EE
:200660001EF90571E57170020570C3941AE570940040E2E4F570F571121EE90571E5717030
:20068000020570C39408E570940040EC7580FF75B0FF75700075711A742C2571F8E6F5A0C9
:2006A000F590121EF90571E57170020570C3941EE570940040E2E4F570F571121EE905711B
:2006C000E57170020570C39408E570940040EC7580FF75B0FF75700075711E742C2571F83A
:2006E000E6F5A0F590121EF90571E57170020570C39421E570940040E2E4F570F571121EBC
:20070000E90571E57170020570C39408E570940040EC7580FF75B0FF757000757121742C25
:200720002571F8E6F5A0F590121EF90571E57170020570C39423E570940040E2E4F570F58C
:2007400071121EE90571E57170020570C39408E570940040EC7580FF75B0FF757000757105
:2007600023742C2571F8E6F5A0F590121EF90571E57170020570C39424E570940040E2E4E2
:20078000F570F571121EE90571E57170020570C39424E570940040EC2278087C007D007B1C
:2007A000FF7A05791E7E007F08120F3878107C007D007BFF7A0579267E007F08120F3878D7
:2007C000187C007D007BFF7A05792E7E007F08120F3875B0FF75A0FF7590FF7580FF7FB8A3
:2007E0007E0B121D6FE4F521E4F52074102520F8E6F5A0F5B0F59074182520F8E6F5807FD6
:20080000B87E0B121D6F0520E520C3940840DCE4F570F571AF7174182FF8E6F590F5B0F5CD
:20082000A074082FF8E6F5807FB87E0B121D6F0571E57170020570C39408E570940040D4AD
:200840000521E521C39402409FE4F521E4F52074102520F8E6F5B0F5A0F59074082520F822
:20086000E6F5807FD07E07121D6F0520E520C3940840DCE4F52074082520F8E6F5B0F5A034
:20088000F59074102520F8E6F5807FD07E07121D6F0520E520C3940840DC0521E521C3941D
:2008A0000240A9E4F521E4F52074102520F8E6F5B0F5A0F59074082520F8E6F5807FB87E2B
:2008C0000B121D6F0520E520C3940840DC0521E521C3940340D0E4F52075B0F075A0F075AC
:2008E00090F07580F075A00F121D6B75B00F75900F75800F75A0F0121D6B0520E520C39469
:200900000540D6E4F521121D6575800F75900F121D6B7580FF7590FF75A00F75B0F0121D1C
:200920006B75A0F075B00F121D6B75A0FF75B0FF75A0F875B01F7FA07E0F121D6F75A0FC95
:2009400075B03F7FA07E0F121D6F75A0FE75B07F7FA07E0F121D6F75A0FF75B0FF7FA07E13
:200960000F121D6F75A0F075B00F121D6B75A00F75B0F0121D6B75A0FF75B0FF75800F7573
:20098000900F121D6B121D657580FF7590FF7580F87590F87FA07E0F121D6F7580FC759068
:2009A000FC7FA07E0F121D6F7580FE7590FE7FA07E0F121D6F7580FF7590FF7FA07E0F12FB
:2009C0001D6F0521E521C3940350030209062278087C007D007BFF7A0379007E007F09127E
:2009E0000F3878117C007D007BFF7A0379097E007F09120F3875B0FF75A0FF7590FF758025
:200A0000FFE4F570F57174082571F8E6F580121EF90571E57170020570C39406E5709400A1
:200A200040E47580FFE4F570F57174112571F8E6F5A0121EF90571E57170020570C3940628
:200A4000E570940040E475A0FFE4F570F57174112571121EF50571E57170020570C3940676
:200A6000E570940040E875B0FFE4F570F57174112571F8E6F590121EF90571E571700205A8
:200A800070C39406E570940040E47590FFE4F570F57174082571F8E6F590121EF90571E5D0
:200AA0007170020570C39406E570940040E47590FFE4F570F57174082571121EF50571E52F
:200AC0007170020570C39406E570940040E875B0FFE4F570F57174082571F8E6F5A0121EC8
:200AE000F90571E57170020570C39406E570940040E475A0FFE4F570F57174112571F8E624
:200B0000F580121EF90571E57170020570C39406E570940040E47580FFE4F570F5717408FB
:200B20002571F8E6F580F590121EF90571E57170020570C39406E570940040E27590FF758A
:200B400080FFE4F570F571AF7174112FF8E6F5A07408121EF40571E57170020570C394096D
:200B6000E570940040E175B0FF75A0FFE4F570F571AF7174082FF8E6F5A07411121EF40598
:200B800071E57170020570C39406E570940040E175A0FF75B0FFE4F570F57174112571F846
:200BA000E6F580F590121EF90571E57170020570C39409E570940040E27580FF7590FF22F4
:200BC000121E55121EF9121908121EF9121DB6121EF9121DEB121EF9120D55121EF91215F6
:200BE00042121EF9121775121EF91214AF121EF912137E121EF9121064121EF912115212C3
:200C00001EF9120536121EF9120799121EF9121B6D121EF9121BC1121EF9121C15121EF926
:200C2000121E20121EF91215CF121EF912165C121EF9121C69121EF9121CBD121EF9121D6C
:200C400011121EF9120003121EF91209CF121EF9120F74121EF91212E1121EF912141712CE
:200C60001EF91217FE121EF9121885121EF9121963121EF9121A13121EF9121064121EF967
:200C8000121152121EF91214AF121EF912137E121EF9120799121EF91219BB121EF9121AD6
:200CA0006B121EF9121064121EF9121152121EF91209CF121EF9121D11121EF9121CBD12DA
:200CC0001EF9121C69121EF912165C121EF91215CF121EF9121B6D121EF9121AC3121EF996
:200CE000121BC1121EF9121B18121EF9121C15121EF9121E20121EF9121E87121EF912197F
:200D000063121EF9120536121EF9121A6B121EF9120003121EF91209CF121EF91210641228
:200D20001EF9121152121EF91214B8121EF912137E121EF9120799121EF9120F74121EF992
:200D40001212E1121EF9121417121EF9121240121EF9020BC078087C007D007BFF7A0279BD
:200D6000BA7E007F08120F3878107C007D007BFF7A0279C27E007F08120F3878187C007DC2
:200D8000007BFF7A0279CA7E007F08120F38E4F572F573E4F570F571AF7174082FF8E6F5BC
:200DA000B0F5A0F59074102FF8E6F580121EF90571E57170020570C39408E570940040D827
:200DC000E4F570F571AF7174102FF8E6F5B0F5A0F59074082FF8E6F580121EF90571E57101
:200DE00070020570C39408E570940040D875B0FF75A0FF7590FF7580FFE4F570F571AF71AD
:200E000074622FF8E6F580745A2FF8E6F5B0F5A0F590121EF90571E57170020570C39408A5
:200E2000E570940040D8E4F570F571AF7174742FF8E6F5B0F5A0F59074182FF8E6F580120E
:200E40001EF90571E57170020570C39408E570940040D80573E57370020572C39402E572FF
:200E600094005003020D9322E709F608DFFA8046E709F208DFFA803E88828C83E709F0A31D
:200E8000DFFA8032E309F608DFFA8078E309F208DFFA807088828C83E309F0A3DFFA806408
:200EA00089828A83E0A3F608DFFA805889828A83E0A3F208DFFA804C80D280FA80C680D448
:200EC000806980F28033801080A680EA809A80A880DA80E280CA803389828A83ECFAE49374
:200EE000A3C8C582C8CCC583CCF0A3C8C582C8CCC583CCDFE9DEE7800D89828A83E493A302
:200F0000F608DFF9ECFAA9F0EDFB2289828A83ECFAE0A3C8C582C8CCC583CCF0A3C8C58298
:200F2000C8CCC583CCDFEADEE880DB89828A83E493A3F208DFF980CC88F0EF60010E4E604B
:200F4000C388F0ED2402B4040050B9F582EB2402B4040050AF2323458223900EB873EB9FC0
:200F6000F5F0EA9E42F0E99D42F0EC6480C864809845F02278087C007D007BFF7A037912B4
:200F80007E007F06120F38780E7C007D007BFF7A0379187E007F06120F3878147C007D000D
:200FA0007BFF7A03791E7E007F06120F3875B0FF75A0FF7590FF7580FFE4F570F571746A8A
:200FC0002571F8E6F580121EF90571E57170020570C39406E570940040E4E4F570F571AF84
:200FE00071740E2FF8E6F58074082FF8E6F5A0121EF90571E57170020570C39406E570943C
:201000000040DCE4F570F571AF7174142FF8E6F5A0740E2FF8E6F58074082571121EF5057B
:2010200071E57170020570C39406E570940040D8E4F570F571AF71740E2FF8E6F580741449
:201040002FF8E6F5B0F5A074082571F8E6F590121EF90571E57170020570C39406E57094B2
:201060000040D22278087C007D007BFF7A0279D27E007F05120F38780D7C007D007BFF7AB5
:201080000279D77E007F05120F3878127C007D007BFF7A0279DC7E007F06120F3878187C6D
:2010A000007D007BFF7A0279E27E007F07120F3875B0FF75A0FF7590FF7580FFE4F570F597
:1F10C0007174082571F8E6F580121EF90571E57170020570C39405E570940040E4758001
:2010E000E4F570F571740D2571F8E6F5A0121EF90571E57170020570C39405E57094004056
:20110000E475A07FE4F570F57174122571121EF50571E57170020570C39406E5709400402E
:20112000E875B07F75A07FE4F570F57174182571F8E6F590121EF90571E57170020570C3BC
:201140009407E570940040E475B07F75A07F75907F2278087C007D007BFF7A0279E97E00BA
:1F1160007F05120F38780D7C007D007BFF7A0279EE7E007F05120F3878127C007D007B5F
:201180007A0279F37E007F06120F3878187C007D007BFF7A0279F97E007F07120F3875B098
:2011A000FF75A0FF7590FF7580FFE4F570F57174082571F8E6F590121EF90571E571700299
:2011C0000570C39405E570940040E47590FFE4F570F571740D2571121EF50571E571700204
:2011E0000570C39405E570940040E875B0FEE4F570F57174122571F8E6F5A0121EF905710D
:20120000E57170020570C39406E570940040E475B0FE75A0FEE4F570F57174182571F8E642
:20122000F580121EF90571E57170020570C39407E570940040E475807F75B0FE75A0FE2226
:2012400075B0FF75A0FF7590FF7580FFE4F570F571745A2571F8E6F5907FC47E09121EFDF1
:201260000571E57170020570C39408E570940040E0E4F570F571745A2571F8E6F5B07FC47A
:201280007E09121EFD0571E57170020570C39408E570940040E0E4F570F571745A2571F874
:2012A000E6F5A07FC47E09121EFD0571E57170020570C39408E570940040E0E4F570F571F2
:2012C00074622571F8E6F5807FC47E09121EFD0571E57170020570C39408E570940040E03D
:2012E0002278087C007D007BFF7A0379247E007F06120F38780E7C007D007BFF7A03792A4A
:1F1300007E007F06120F3878147C007D007BFF7A0379307E007F06120F3875B0FF75A0B8
:201320007590FF7580FFE4F570F571AF71746A2FF8E6F5A07408121EF40571E57170020583
:2013400070C39406E570940040E1E4F570F571AF71740E2FF8E6F5A074142FF8E6F5B07415
:20136000082571F8E6F590F580121EF90571E57170020570C39406E570940040D22275B07C
:20138000FF75A0FF7590FF7580FF7590FE75807F75B01E121EF975B08E121EFD75B0C61282
:2013A0001EFD75B0E2121EFD75B0F8121EFD75B0FE75901E121EFD75908E121EFD7590C696
:2013C000121EFD7590E2121EFD7590F8121EFD7590FE758078121EFD758071121EFD75807D
:2013E00063121EFD758047121EFD75801F121EFD75807F75A01F121EFD75A08F121EFD7598
:20140000A0C7121EFD75A0E3121EFD75A0F1121EFD75A0F8021EFD78087C007D007BFF7A49
:201420000379367E007F06120F38780E7C007D007BFF7A03793C7E007F06120F3878147C0F
:20144000007D007BFF7A0379427E007F06120F3875B0FF75A0FF7590FF7580FFE4F570F593
:201460007174082571F8E6F5A0F580121EF90571E57170020570C39406E570940040E2E4D9
:20148000F570F571AF7174142FF8E6F5A0F580746A2FF8E6F59074082571121EF50571E5C0
:2014A0007170020570C39406E570940040D622E4F5B0F5A0F590F58075A0F8121EF975A0F3
:2014C000F1121EFD75A0E3121EFD75A0C7121EFD75A08F121EFD75A01F121EFD75A0FF7505
:2014E000801F121EFD758047121EFD758063121EFD758071121EFD758078121EFD75807F91
:201500007590F8121EFD7590E2121EFD7590C6121EFD75908E121EFD75901E121EFD758090
:201520007F7590FE75B0F8121EFD75B0E2121EFD75B0C6121EFD75B08E121EFD75B01E026E
:201540001EFD75B0FF75A0FF7590FF7580FFE4F570F571745A2571F8E6F580121EF905713B
:20156000E57170020570C39408E570940040E4E4F570F57174622571F8E6F5A0121EF90506
:2015800071E57170020570C39408E570940040E4E4F570F57174622571121EF50571E57125
:2015A00070020570C39408E570940040E8E4F570F57174622571F8E6F590121EF90571E5D2
:2015C0007170020570C39408E570940040E42275B0FF75A0FF7590FF7580FFE4F570F57146
:2015E000745A2571F8E6F580121EF90571E57170020570C39408E570940040E4E4F570F5AE
:201600007174622571121EF50571E57170020570C39408E570940040E8E4F570F571746220
:201620002571F8E6F5A0121EF90571E57170020570C39408E570940040E4E4F570F5717436
:201640005A2571F8E6F590121EF90571E57170020570C39408E570940040E42275B0FF7534
:20166000A0FF7590FF7580FFE4F570F571745A2571F8E6F590121EF90571E5717002057081
:20168000C39408E570940040E4E4F570F57174622571F8E6F5A0121EF90571E571700205E4
:2016A00070C39408E570940040E4E4F570F57174622571121EF50571E57170020570C39404
:2016C00008E570940040E8E4F570F57174622571F8E6F580121EF90571E57170020570C3E4
:2016E0009408E570940040E422787FE4F6D8FD75817B021730020BC0E493A3F8E493A34086
:2017000003F68001F208DFF48029E493A3F85407240CC8C333C4540F4420C8834004F4561A
:20172000800146F6DFE4800B0102040810204080901EB8E47E019360BCA3FF543F30E509D4
:20174000541FFEE493A360010ECF54C025E060A840B8E493A3FAE493A3F8E493A3C8C58258
:20176000C8CAC583CAF0A3C8C582C8CAC583CADFE9DEE780BEE4F5B0F5A0F590F580F57037
:20178000F57174522571F8E6F580121EF90571E57170020570C39408E570940040E4E4F513
:2017A00070F57174742571F8E6F5A0121EF90571E57170020570C39408E570940040E4E436
:2017C000F570F57174742571121EF50571E57170020570C39408E570940040E8E4F570F53A
:2017E0007174742571F8E6F590121EF90571E57170020570C39408E570940040E4227808AD
:201800007C007D007BFF7A04796C7E007F08120F3878107C007D007BFF7A0479747E007F31
:2018200008120F3875B0FF75A0FF7590FF7580FFE4F570F571AF7174082FF8E6F5807410C6
:201840002FF8E6F5B07FC47E09121EFD0571E57170020570C39408E570940040D8E4F57083
:20186000F57174102571F8E6F590F5A07FC47E09121EFD0571E57170020570C39408E57092
:1F188000940040DE2278087C007D007BFF7A04797C7E007F08120F3878107C007D007BB5
:2018A0007A0479847E007F08120F38E4F5B0F5A0F590F580F570F57174082571F8E6F590F7
:2018C000F5A07FC47E09121EFD0571E57170020570C39408E570940040DEE4F570F571AF05
:2018E0007174102FF8E6F58074082FF8E6F5B07FC47E09121EFD0571E57170020570C39442
:2019000008E570940040D822E4F570F571E4F590F5A0121EF97590FF75A0FF121EFDE4F5A8
:2019200090F5A0121EFD7590FF75A0FF121EFDE4F580F5B0121EFD7580FF75B0FF121EFDA0
:20194000E4F580F5B0121EFD7580FF75B0FF121EFD0571E57170020570C39405E57094001F
:2019600040AB2278087C007D007BFF7A0379487E007F24120F38782C7C007D007BFF7A031B
:20198000796C7E007F24120F38E4F570F571AF7174082FF8E6F580742C2FF8E6F5B0F5A034
:2019A000F5907F907E01121EFD0571E57170020570C39424E570940040D42278087C007D21
:2019C000007BFF7A0379907E007F24120F38782C7C007D007BFF7A0379B47E007F24120F8A
:2019E00038E4F570F571AF71742C2FF8E6F58074082FF8E6F5B0F5A0F5907F907E01121EB8
:201A0000FD0571E57170020570C39424E570940040D42278087C007D007BFF7A0379D87E3D
:201A2000007F25120F38782D7C007D007BFF7A0379FD7E007F25120F38E4F570F571AF7154
:201A400074082FF8E6F580742D2FF8E6F5B0F5A0F5907F907E01121EFD0571E5717002051D
:201A600070C39425E570940040D42278087C007D007BFF7A0479227E007F25120F38782D2F
:201A80007C007D007BFF7A0479477E007F25120F38E4F570F571AF71742D2FF8E6F58074B4
:201AA000082FF8E6F5B0F5A0F5907F907E01121EFD0571E57170020570C39425E57094007F
:201AC00040D422E4F5B0F5A0F590F580F570F57174522571F8E6F590F580121EF90571E535
:201AE0007170020570C39408E570940040E2E4F570F571AF7174522FF8E6F5B074742FF8CE
:201B0000E6F5A0121EF90571E57170020570C39408E570940040DC22E4F5B0F5A0F590F550
:201B200080F570F571AF7174522FF8E6F5B074742FF8E6F590121EF90571E571700205706C
:201B4000C39408E570940040DCE4F570F57174522571F8E6F5A0F580121EF90571E57170C9
:201B6000020570C39408E570940040E22275B0FF75A0FF7590FF7580FFE4F570F571AF7163
:201B8000745A2FF8E6F5A07462121EF40571E57170020570C39408E570940040E1E4F57076
:201BA000F57174622571F8E6F590F580121EF90571E57170020570C39408E570940040E235
:201BC0002275B0FF75A0FF7590FF7580FFE4F570F57174622571F8E6F5A0F580121EF90582
:201BE00071E57170020570C39408E570940040E2E4F570F571AF71745A2FF8E6F5907462C8
:201C0000121EF40571E57170020570C39408E570940040E12275B0FF75A0FF7590FF758031
:201C2000FFE4F570F571AF7174622FF8E6F5A0745A121EF40571E57170020570C39408E575
:201C400070940040E1E4F570F571745A2571F8E6F590F580121EF90571E57170020570C3D5
:201C60009408E570940040E22275B0FF75A0FF7590FF7580FFE4F570F571745A2571F8E67A
:201C8000F5A0F580121EF90571E57170020570C39408E570940040E2E4F570F571AF7174B1
:1F1CA0005A2FF8E6F5907462121EF40571E57170020570C39408E570940040E12275B0DC
:201CC00075A0FF7590FF7580FFE4F570F571AF71745A2FF8E6F5807462121EF40571E57113
:201CE00070020570C39408E570940040E1E4F570F57174622571F8E6F590F5A0121EF90553
:201D000071E57170020570C39408E570940040E22275B0FF75A0FF7590FF7580FFE4F57010
:201D2000F571745A2571F8E6F590F5A0121EF90571E57170020570C39408E570940040E29B
:201D4000E4F570F571AF7174622FF8E6F580745A121EF40571E57170020570C39408E57003
:201D6000940040E1227580F07590F07F707E177D007C008F258E248D238C22E4F529F52852
:201D8000F527F526AF25AE24AD23AC22AB29AA28A927A826C3120F5E501BE4FAF9F8E529FA
:201DA0002401F529EA3528F528E93527F527E83526F52680CF22E4F570F57175B05575A00E
:201DC00055759055758055121EF975B0AA75A0AA7590AA7580AA121EFD0571E57170020595
:201DE00070C39408E570940040D122E4F570F57175B0AA75A0AA7590AA7580AA121EF975CF
:201E0000B05575A055759055758055121EFD0571E57170020570C39408E570940040D12254
:201E200075B0FF75A0FF7590FF7580FFE4F570F571AF71745A2FF8E6F5A0F590F580746263
:1F1E4000121EF40571E57170020570C39408E570940040DD22E4F572F57375B0FF75A039
:201E60007590FF7580FF121EF9E4F5B0F5A0F590F580121EFD0573E57370020572C39408E4
:201E8000E572940040D422E4F5B0F5A0F590F580F570F571AF7174742FF8E6F590F5A0F51A
:201EA000807452121EF40571E57170020570C39409E570940040DD22085AFEFCF8F0E0C099
:1F1EC000800008627F3F1F0F0703010008520103070F1F3F7FFF087480C0E0F0F8FCFE54
:201EE000066AFEF5EAD5AA5500AF7174082FF8E6F580742C2FF8E6F5B07F2C7E01E4FDFC4A
:151F0000C3ED9FEC9E500DE4FB0BBB7DFC0DBD00010C80EC2213
:00000001FF