:1001E900FCFC8080FCFC83F5F6F58380FDFBF78041
:0201F900FFFF06
:0A01FB0008080102040810204080EB
:1001C900E4FDFCC3ED9FEC9E5015E4FBFA0BBB006C
:0F01D900010AEB647E4A70F50DBD00010C80E455
:0101E80022F4
:10019E00E4FDFCEFFB530380EB64807004D2B1806E
:1001AE0002C2B1EF25E0FFC2B0D2B00DBD00010C0E
:0A01BE00ED64084C70DDC2B2D2B24D
:0101C8002214
:10011A00E4F510F511E4F514F515E4F512F5137488
:10012A00082513F8E6F5A0E5132511FFE5123510A9
:10013A00FE7C007D1212008F74E92DF58274013C59
:10014A00F583E493FF12019E7F057E001201C90523
:10015A0013E51370020512C39408E51264809480B3
:10016A0040BD0515E51570020514C3940AE514642B
:10017A0080948040A50511E51170020510C3941200
:10018A00E51064809480408DE4F5A07F64FE12013E
:04019A00C902011A7B
:03000000020003F8
:0C000300787FE4F6D8FD75811502004AF4
:10008F00C2D5EC30E709B2D5E4C39DFDE49CFCEE8C
:10009F0030E715B2D5E4C39FFFE49EFE1200C5C33F
:1000AF00E49DFDE49CFC80031200C530D507C3E43A
:0600BF009FFFE49EFE22FB
:10000F0002011AE493A3F8E493A34003F68001F2EC
:10001F0008DFF48029E493A3F85407240CC8C333F2
:10002F00C4540F4420C8834004F456800146F6DFC1
:10003F00E4800B01020408102040809001FBE47E55
:10004F00019360BCA3FF543F30E509541FFEE493B6
:10005F00A360010ECF54C025E060A840B8E493A37D
:10006F00FAE493A3F8E493A3C8C582C8CAC583CAA8
:10007F00F0A3C8C582C8CAC583CADFE9DEE780BE60
:0102050000F8
:1000C500BC000BBE0029EF8DF084FFADF022E4CC1F
:1000D500F875F008EF2FFFEE33FEEC33FCEE9DECE8
:1000E500984005FCEE9DFE0FD5F0E9E4CEFD22ED2E
:1000F500F8F5F0EE8420D21CFEADF075F008EF2F78
:10010500FFED33FD4007985006D5F0F222C398FD68
:050115000FD5F0EA2205
:00000001FF
