:10002900E4FDFCC3ED9FEC9E5016758CFC758A1798
:10003900D28C308DFDC28DC28C0DBD00010C80E3C8
:010049002294
:04004A00AB07AA0650
:10004E00900000C3E5829BE5839A500A7FE87E0309
:06005E00120029A380ED51
:010064002279
:040003008E088F09CB
:10000700E4F50AF50BC3E50B9509E50A95085011C8
:100017007F3C7E0012004A050BE50B70E8050A805D
:01002700E4F4
:0100280022B5
:10006500758901C2A07F0A7E0012004AD2A07F0ACC
:070075007E0012004A80EC3E
:0300000002007C7F
:0C007C00787FE4F6D8FD75810B0200656A
:00000001FF
