:10021900FCFC8080FCFC83F5F6F58380FDFBF78010
:02022900FFFFD5
:0A022B0008080102040810204080BA
:1001F900E4FDFCC3ED9FEC9E5015E4FBFA0BBB003C
:0F020900010AEB647E4A70F50DBD00010C80E424
:0102180022C3
:1001A300E4FDFCEFFB530380EB64807004D2A18079
:1001B30002C2A1EF25E0FFC2A0D2A00DBD00010C39
:0A01C300ED64084C70DDC2A2D2A268
:0101CD00220F
:1001CE00E4FDFCEFFB530380EB64807004D2A4804B
:1001DE0002C2A4EF25E0FFC2A3D2A30DBD00010C05
:0A01EE00ED64084C70DDC2A5D2A537
:0101F80022E4
:10011A00E4F510F511E4F514F515E4F512F5137488
:10012A00082513F8E6FF1201CEE5132511FFE512A3
:10013A003510FE7C007D1212008F74192DF5827421
:10014A00023CF583E493FF1201A37F057E001201AE
:10015A00F90513E51370020512C39408E5126480C9
:10016A00948040BB0515E51570020514C3940AE591
:10017A00146480948040A30511E51170020510C330
:10018A009412E51064809480408BE4FF1201CE7FC4
:09019A00647E001201F902011A51
:03000000020003F8
:0C000300787FE4F6D8FD75811502004AF4
:10008F00C2D5EC30E709B2D5E4C39DFDE49CFCEE8C
:10009F0030E715B2D5E4C39FFFE49EFE1200C5C33F
:1000AF00E49DFDE49CFC80031200C530D507C3E43A
:0600BF009FFFE49EFE22FB
:10000F0002011AE493A3F8E493A34003F68001F2EC
:10001F0008DFF48029E493A3F85407240CC8C333F2
:10002F00C4540F4420C8834004F456800146F6DFC1
:10003F00E4800B010204081020408090022BE47E24
:10004F00019360BCA3FF543F30E509541FFEE493B6
:10005F00A360010ECF54C025E060A840B8E493A37D
:10006F00FAE493A3F8E493A3C8C582C8CAC583CAA8
:10007F00F0A3C8C582C8CAC583CADFE9DEE780BE60
:0102350000C8
:1000C500BC000BBE0029EF8DF084FFADF022E4CC1F
:1000D500F875F008EF2FFFEE33FEEC33FCEE9DECE8
:1000E500984005FCEE9DFE0FD5F0E9E4CEFD22ED2E
:1000F500F8F5F0EE8420D21CFEADF075F008EF2F78
:10010500FFED33FD4007985006D5F0F222C398FD68
:050115000FD5F0EA2205
:00000001FF
