:1009670001170001186401080002090000020B00CA
:1009770000020D0000020F00000211000002130028
:05098700000215000054
:03000B0002098D5A
:10098D00C0E0C0D0C28C0517E517D395184003758C
:09099D001700D28CD0D0D0E0325A
:10080000E508D3951740028001D392A0AF177E0070
:10081000D3E50A9F7480F865099840028001D3925D
:10082000A1D3E50C9FEE6480F8E50B64809840024C
:100830008001D392A2AF177E00D3E50E9F7480F89B
:10084000650D9840028001D392A3D3E5109FEE641A
:1008500080F8E50F64809840028001D392A4AF171E
:100860007E00D3E5129F7480F865119840028001E4
:10087000D392A5D3E5149FEE6480F8E513648098C5
:1008800040028001D392A6D3E51695177480F865CF
:0A089000159840028001D392A722C0
:10092600758902758C9B758A9BD2A9D2AF750850C2
:10093600750900750A14750B00750C28750D007580
:100946000E32750F0075104675110075125075132D
:100956000075141E751500751664D28C1208008079
:01096600FB95
:0300000002089A59
:0C089A00787FE4F6D8FD7581180208E1B3
:1008A600020926E493A3F8E493A34003F68001F239
:1008B60008DFF48029E493A3F85407240CC8C33353
:1008C600C4540F4420C8834004F456800146F6DF22
:1008D600E4800B0102040810204080900967E47E42
:1008E600019360BCA3FF543F30E509541FFEE49317
:1008F600A360010ECF54C025E060A840B8E493A3DE
:10090600FAE493A3F8E493A3C8C582C8CAC583CA08
:10091600F0A3C8C582C8CAC583CADFE9DEE780BEC0
:01098C00006A
:00000001FF
