:0C01A7000A10C0F9A4B0999282F8809070
:0E018E007F647E0012019C75A0FF7F647E00DE
:0B019C00EF1FAC0670011E4C70F62235
:10011D00AE0CAF0D7C007D0A1200928E088F09AED9
:10012D000CAF0D7C007D0A1200928C0A8D0BE4FB46
:10013D00FA74102509F8E6F5A0D290C29112018E3D
:10014D007410250BF8E6F5A0D291C29012018E0B1A
:0A015D00BB00010AEB64644A70D78E
:010167002275
:030003000201688F
:10016800C0E0C0D0C3E50D9463E50C648094804082
:1001780008750C00750D008008050DE50D70020569
:060188000CD0D0D0E032E3
:0C01B400D2AFD28875A88112011D80FB1B
:03000000020006F5
:0C000600787FE4F6D8FD75811902004DEA
:10009200C2D5EC30E709B2D5E4C39DFDE49CFCEE89
:1000A20030E715B2D5E4C39FFFE49EFE1200C8C339
:1000B200E49DFDE49CFC80031200C830D507C3E434
:0600C2009FFFE49EFE22F8
:100012000201B4E493A3F8E493A34003F68001F24F
:1000220008DFF48029E493A3F85407240CC8C333EF
:10003200C4540F4420C8834004F456800146F6DFBE
:10004200E4800B01020408102040809001A7E47EA6
:10005200019360BCA3FF543F30E509541FFEE493B3
:10006200A360010ECF54C025E060A840B8E493A37A
:10007200FAE493A3F8E493A3C8C582C8CAC583CAA5
:10008200F0A3C8C582C8CAC583CADFE9DEE780BE5D
:0101B300004B
:1000C800BC000BBE0029EF8DF084FFADF022E4CC1C
:1000D800F875F008EF2FFFEE33FEEC33FCEE9DECE5
:1000E800984005FCEE9DFE0FD5F0E9E4CEFD22ED2B
:1000F800F8F5F0EE8420D21CFEADF075F008EF2F75
:10010800FFED33FD4007985006D5F0F222C398FD65
:050118000FD5F0EA2202
:00000001FF
