:1003390020426C6F6727732054616E6E6400FFFF63
:10034900FFFFFFFFFFFFA0FFFFFFFFFFF8F4FFFF25
:10035900EB80EB80EBFFDBD580D5EDFFD8EA94ABE2
:100369008DFFC9B6A9DFAFFFFFFFF8F4FFFFFFE379
:10037900DDBEFFFFFFBEDDE3FFFFD5E380E3D5FF71
:10038900F7F7C1F7F7FFFFA7C7FFFFFFF7F7F7F782
:10039900F7FFFF9F9FFFFFFFFFC9C9FFFFFFC1AE27
:1003A900B6BAC1FFFFBD80BFFFFF8DB6B6B6B9FFB4
:1003B900DDBEB6B6C9FFE7EBED80EFFFD8BABABA32
:1003C900C6FFC3B5B6B6CFFFFE8EF6FAFCFFC9B6B7
:1003D900B6B6C9FFF9B6B6D6E1FFFFC9C9FFFFFF37
:1003E900FFA4C4FFFFFFF7EBDDBEFFFFEBEBEBEB79
:1003F900EBFFFFBEDDEBF7FFFDFEAEF6F9FFCDB675
:100409008EBEC1FF83F5F6F583FFBE80B6B6C9FF80
:10041900C1BEBEBEDDFFBE80BEBEC1FF80B6B6B6E0
:10042900BEFF80F6F6FEFEFFC1BEB6B6C5FF80F779
:10043900F7F780FFFFBE80BEFFFFDFBFBEC0FEFF34
:1004490080F7EBDDBEFF80BFBFBFFFFF80FDF3FD7F
:1004590080FF80FDFBF780FFC1BEBEBEC1FF80F6F5
:10046900F6F6F9FFC1BEAEDEA1FF80F6E6D6B9FF0A
:10047900D9B6B6B6CDFFFEFE80FEFEFFC0BFBFBF38
:10048900C0FFE0DFBFDFE0FFC0BFCFBFC0FF9CEB15
:10049900F7EB9CFFFCFB87FBFCFF9EAEB6BABCFFEB
:1004A900FF80BEBEFFFFFDFBF7EFDFFFFFBEBE8093
:1004B900FFFFFBFDFEFDFBFF7F7F7F7F7FFFFFFFD0
:1004C900F8F4FFFFDFABABABC7FF80C7BBBBC7FF10
:1004D900FFC7BBBBBBFFC7BBBBC780FFC7ABABABD2
:1004E900F7FFF781F6F6FDFFF7ABABABC3FF80F77C
:1004F900FBFB87FFFFBB82BFFFFFDFBFBBC2FFFF65
:10050900FF80EFD7BBFFFFBE80BFFFFF83FB87FBE9
:1005190087FF83F7FBFB87FFC7BBBBBBC7FF83EB2A
:10052900EBEBF7FFF7EBEBEB83FF83F7FBFBF7FF56
:10053900B7ABABABDBFFFFFBC0BBBBFFC3BFBFDFD1
:1005490083FFE3DFBFDFE3FFC3BFCFBFC3FFBBD77A
:10055900EFD7BBFFF3AFAFAFC3FFBB9BABB3BBFFE2
:0E056900FBE1E0E1FBFF0102040810204080EE
:050859000308FF033954
:10081C00AF7AEF90056F93F590EF25102415F8E65D
:06082C00F5A07F507E00E4
:10083200E4FDFCC3ED9FEC9E50070DBD00010C8052
:01084200F2C3
:010843002292
:10060E007C007D061207F1EF2440F510EE34FFF565
:10061E000F7515FFE4F50BF50CE510250CFFE50F36
:10062E00350BFE74472FF58274033EF583E493FF7A
:10063E007416250CF8A607050CE50C7002050B6464
:10064E0006450B70D4751CFFE4F50BF50CE4F5793B
:10065E00F57AAF7AEF90056F93F59074152FF8E653
:10066E00F5807F147E00120832057AE57A70020555
:10067E0079C39408E579940040D8050CE50C700216
:10068E00050BC394C8E50B940040C27580FF7F50E4
:05069E007E000208329D
:1006A3007C007D061207F1EF2440F510EE34FFF5D0
:1006B3000F7515FFE4F50BF50CE510250CFFE50FA1
:1006C300350BFE74472FF58274033EF583E493FFE5
:1006D3007416250CF8A607050CE50C7002050B64CF
:1006E30006450B70D4751CFFE4F50BF50CE4F579A6
:1006F300F57AAF7AEF90056F93F59074152FF8E6BE
:10070300F5A07F147E00120832057AE57A7002059F
:1007130079C39408E579940040D8050CE50C700280
:10072300050BC394C8E50B940040C27580FF7F504E
:050733007E0002083207
:100577007C007D061207F1EF2440F510EE34FFF5FD
:100587000F7515FFE4F50BF50CE510250CFFE50FCE
:10059700350BFE74472FF58274033EF583E493FF12
:1005A7007416250CF8A607050CE50C7002050B64FC
:1005B70006450B70D4751CFFE4F50BF50CE4F579D3
:1005C700F57AAF7AEF90056F93F59074152FF8E6EB
:1005D700F580F5A07F147E00120832057AE57A705F
:1005E700020579C39408E579940040D6050CE50C1B
:1005F7007002050BC394C8E50B940040C07580FFDB
:070607007F507E0002083263
:10000300AB08AA09A90A1208447C007D061207F16D
:10001300EF2408F512E43EF511E4F50BF50C741525
:10002300250CF876FF050CE50C7002050B640845FA
:100033000B70EBE4F50BF50CAB08AA09A90A12083F
:1000430044C3E50C9FE50B9E40030200E7E4F5790A
:10005300F57AAB08AA09A90A850C82850B831207D6
:10006300C475F006A4AEF02440F510EE34FFF50F8E
:10007300F50D85100EE5102406FFE4350FFEC3E5EC
:100083000E9FE50D9E5052AE0BAF0C7C007D061209
:1000930007F1EF2408FFE43EFEE57A2FF514E57936
:1000A3003EF513E510257AFFE50F3579FE74472FEA
:1000B300F58274033EF583E493FFE50C75F006A423
:1000C300257A241DF8A607057AE57A7002057905D5
:1000D3000EE50E70A0050D809C050CE50C70020565
:1000E3000B02003BE5142401F50CE43513F50BE595
:1000F300142408FFE43513FEC3E50C9FE50B9E5063
:10010300117415250CF876FF050CE50C70E1050B51
:1001130080DD750D00750E30AF0EAE0D12060E05A7
:100123000EE50E7002050DC3943BE50D940040E807
:10013300750D00750E30AF0EAE0D1206A3050EE55C
:100143000E7002050DC3943BE50D940040E8750D58
:1001530000750E30AF0EAE0D120577050EE50E706D
:1001630002050DC3943BE50D940040E8750D007541
:100173000E41AF0EAE0D12060E050EE50E70020512
:100183000DC3945CE50D940040E8750D00750E41B8
:10019300AF0EAE0D1206A3050EE50E7002050DC3DC
:1001A300945CE50D940040E8750D00750E41AF0EAB
:1001B300AE0D120577050EE50E7002050DC3945CB6
:1001C300E50D940040E8E4F50BF50CE4F50FF510AC
:1001D300F57BF57CC3E57C9512E57B95115048755D
:1001E3000D00750E01E4F579F57A12081C057AE520
:1001F3007A70020579C39408E579940040EC050E02
:10020300E50E7002050DC39464E50D940040D675A8
:1002130080FF12082E0510E5107002050F057CE51E
:100223007C70B1057B80AD050CE50C7002050BC33A
:100233009403E50B94004093E4F50BF50CE4F50F00
:10024300F510F57BF57CC3E57C9512E57B951150A4
:1002530048750D00750E01E4F579F57A12081C0551
:100263007AE57A70020579C39408E579940040EC45
:10027300050EE50E7002050DC39464E50D94004070
:10028300D67580FF12082E0510E5107002050F05C4
:100293007CE57C70B1057B80AD050CE50C70020537
:1002A3000BC39403E50B94004093E4F50BF50CC3E7
:1002B300E50C9403E50B94004003020115E4F50FEC
:1002C300F510F57BF57CC3E57C9512E57B95115024
:1002D3005A750D00750E01E4F579F57AAF7AEF9052
:1002E300056F93F590EF25102415F8E6F5801208B5
:1002F3002E057AE57A70020579C39408E5799400AE
:1003030040DA050EE50E7002050DC39464E50D9405
:100313000040C47580FF12082E0510E51070020519
:100323000F057CE57C709F057B809B050CE50C70BD
:0603330002050B0202B2FC
:03000000020738BC
:0C073800787FE4F6D8FD75817C02077F15
:1007C400BB010CE58229F582E5833AF583E02250EA
:1007D40006E92582F8E622BBFE06E92582F8E22234
:0D07E400E58229F582E5833AF583E493224E
:1007F100EF8DF0A4A8F0CF8CF0A428CE8DF0A42E1C
:02080100FE22D5
:10084400E4FFFE120803600C0FEF70010E09E9705B
:05085400F20A80EF2212
:10074400020003E493A3F8E493A34003F68001F2C8
:1007540008DFF48029E493A3F85407240CC8C333B6
:10076400C4540F4420C8834004F456800146F6DF85
:10077400E4800B0102040810204080900859E47EB4
:10078400019360BCA3FF543F30E509541FFEE4937A
:10079400A360010ECF54C025E060A840B8E493A341
:1007A400FAE493A3F8E493A3C8C582C8CAC583CA6C
:1007B400F0A3C8C582C8CAC583CADFE9DEE780BE24
:01085E000099
:10080300BB010689828A83E0225002E722BBFE02F3
:09081300E32289828A83E4932226
:00000001FF
